{
  "_format": "hh-sol-artifact-1",
  "contractName": "SimpleNFTs",
  "sourceName": "contracts/misc/SimpleNFTs.sol",
  "abi": [
    {
      "inputs": [
        {
          "internalType": "string",
          "name": "baseURI",
          "type": "string"
        }
      ],
      "stateMutability": "nonpayable",
      "type": "constructor"
    },
    {
      "anonymous": false,
      "inputs": [
        {
          "indexed": true,
          "internalType": "address",
          "name": "owner",
          "type": "address"
        },
        {
          "indexed": true,
          "internalType": "address",
          "name": "approved",
          "type": "address"
        },
        {
          "indexed": true,
          "internalType": "uint256",
          "name": "tokenId",
          "type": "uint256"
        }
      ],
      "name": "Approval",
      "type": "event"
    },
    {
      "anonymous": false,
      "inputs": [
        {
          "indexed": true,
          "internalType": "address",
          "name": "owner",
          "type": "address"
        },
        {
          "indexed": true,
          "internalType": "address",
          "name": "operator",
          "type": "address"
        },
        {
          "indexed": false,
          "internalType": "bool",
          "name": "approved",
          "type": "bool"
        }
      ],
      "name": "ApprovalForAll",
      "type": "event"
    },
    {
      "anonymous": false,
      "inputs": [
        {
          "indexed": true,
          "internalType": "address",
          "name": "previousOwner",
          "type": "address"
        },
        {
          "indexed": true,
          "internalType": "address",
          "name": "newOwner",
          "type": "address"
        }
      ],
      "name": "OwnershipTransferred",
      "type": "event"
    },
    {
      "anonymous": false,
      "inputs": [
        {
          "indexed": true,
          "internalType": "address",
          "name": "from",
          "type": "address"
        },
        {
          "indexed": true,
          "internalType": "address",
          "name": "to",
          "type": "address"
        },
        {
          "indexed": true,
          "internalType": "uint256",
          "name": "tokenId",
          "type": "uint256"
        }
      ],
      "name": "Transfer",
      "type": "event"
    },
    {
      "stateMutability": "payable",
      "type": "fallback"
    },
    {
      "inputs": [],
      "name": "MAX_TOKEN_ID",
      "outputs": [
        {
          "internalType": "uint256",
          "name": "",
          "type": "uint256"
        }
      ],
      "stateMutability": "view",
      "type": "function"
    },
    {
      "inputs": [],
      "name": "PRICE",
      "outputs": [
        {
          "internalType": "uint256",
          "name": "",
          "type": "uint256"
        }
      ],
      "stateMutability": "view",
      "type": "function"
    },
    {
      "inputs": [],
      "name": "_paused",
      "outputs": [
        {
          "internalType": "bool",
          "name": "",
          "type": "bool"
        }
      ],
      "stateMutability": "view",
      "type": "function"
    },
    {
      "inputs": [
        {
          "internalType": "address",
          "name": "to",
          "type": "address"
        },
        {
          "internalType": "uint256",
          "name": "tokenId",
          "type": "uint256"
        }
      ],
      "name": "approve",
      "outputs": [],
      "stateMutability": "nonpayable",
      "type": "function"
    },
    {
      "inputs": [
        {
          "internalType": "address",
          "name": "owner",
          "type": "address"
        }
      ],
      "name": "balanceOf",
      "outputs": [
        {
          "internalType": "uint256",
          "name": "",
          "type": "uint256"
        }
      ],
      "stateMutability": "view",
      "type": "function"
    },
    {
      "inputs": [
        {
          "internalType": "uint256",
          "name": "tokenId",
          "type": "uint256"
        }
      ],
      "name": "getApproved",
      "outputs": [
        {
          "internalType": "address",
          "name": "",
          "type": "address"
        }
      ],
      "stateMutability": "view",
      "type": "function"
    },
    {
      "inputs": [
        {
          "internalType": "address",
          "name": "owner",
          "type": "address"
        },
        {
          "internalType": "address",
          "name": "operator",
          "type": "address"
        }
      ],
      "name": "isApprovedForAll",
      "outputs": [
        {
          "internalType": "bool",
          "name": "",
          "type": "bool"
        }
      ],
      "stateMutability": "view",
      "type": "function"
    },
    {
      "inputs": [],
      "name": "mint",
      "outputs": [],
      "stateMutability": "payable",
      "type": "function"
    },
    {
      "inputs": [],
      "name": "name",
      "outputs": [
        {
          "internalType": "string",
          "name": "",
          "type": "string"
        }
      ],
      "stateMutability": "view",
      "type": "function"
    },
    {
      "inputs": [],
      "name": "owner",
      "outputs": [
        {
          "internalType": "address",
          "name": "",
          "type": "address"
        }
      ],
      "stateMutability": "view",
      "type": "function"
    },
    {
      "inputs": [
        {
          "internalType": "uint256",
          "name": "tokenId",
          "type": "uint256"
        }
      ],
      "name": "ownerOf",
      "outputs": [
        {
          "internalType": "address",
          "name": "",
          "type": "address"
        }
      ],
      "stateMutability": "view",
      "type": "function"
    },
    {
      "inputs": [],
      "name": "renounceOwnership",
      "outputs": [],
      "stateMutability": "nonpayable",
      "type": "function"
    },
    {
      "inputs": [
        {
          "internalType": "address",
          "name": "from",
          "type": "address"
        },
        {
          "internalType": "address",
          "name": "to",
          "type": "address"
        },
        {
          "internalType": "uint256",
          "name": "tokenId",
          "type": "uint256"
        }
      ],
      "name": "safeTransferFrom",
      "outputs": [],
      "stateMutability": "nonpayable",
      "type": "function"
    },
    {
      "inputs": [
        {
          "internalType": "address",
          "name": "from",
          "type": "address"
        },
        {
          "internalType": "address",
          "name": "to",
          "type": "address"
        },
        {
          "internalType": "uint256",
          "name": "tokenId",
          "type": "uint256"
        },
        {
          "internalType": "bytes",
          "name": "_data",
          "type": "bytes"
        }
      ],
      "name": "safeTransferFrom",
      "outputs": [],
      "stateMutability": "nonpayable",
      "type": "function"
    },
    {
      "inputs": [
        {
          "internalType": "address",
          "name": "operator",
          "type": "address"
        },
        {
          "internalType": "bool",
          "name": "approved",
          "type": "bool"
        }
      ],
      "name": "setApprovalForAll",
      "outputs": [],
      "stateMutability": "nonpayable",
      "type": "function"
    },
    {
      "inputs": [
        {
          "internalType": "bool",
          "name": "val",
          "type": "bool"
        }
      ],
      "name": "setPaused",
      "outputs": [],
      "stateMutability": "nonpayable",
      "type": "function"
    },
    {
      "inputs": [
        {
          "internalType": "bytes4",
          "name": "interfaceId",
          "type": "bytes4"
        }
      ],
      "name": "supportsInterface",
      "outputs": [
        {
          "internalType": "bool",
          "name": "",
          "type": "bool"
        }
      ],
      "stateMutability": "view",
      "type": "function"
    },
    {
      "inputs": [],
      "name": "symbol",
      "outputs": [
        {
          "internalType": "string",
          "name": "",
          "type": "string"
        }
      ],
      "stateMutability": "view",
      "type": "function"
    },
    {
      "inputs": [
        {
          "internalType": "uint256",
          "name": "index",
          "type": "uint256"
        }
      ],
      "name": "tokenByIndex",
      "outputs": [
        {
          "internalType": "uint256",
          "name": "",
          "type": "uint256"
        }
      ],
      "stateMutability": "view",
      "type": "function"
    },
    {
      "inputs": [],
      "name": "tokenIds",
      "outputs": [
        {
          "internalType": "uint256",
          "name": "",
          "type": "uint256"
        }
      ],
      "stateMutability": "view",
      "type": "function"
    },
    {
      "inputs": [
        {
          "internalType": "address",
          "name": "owner",
          "type": "address"
        },
        {
          "internalType": "uint256",
          "name": "index",
          "type": "uint256"
        }
      ],
      "name": "tokenOfOwnerByIndex",
      "outputs": [
        {
          "internalType": "uint256",
          "name": "",
          "type": "uint256"
        }
      ],
      "stateMutability": "view",
      "type": "function"
    },
    {
      "inputs": [
        {
          "internalType": "uint256",
          "name": "tokenId",
          "type": "uint256"
        }
      ],
      "name": "tokenURI",
      "outputs": [
        {
          "internalType": "string",
          "name": "",
          "type": "string"
        }
      ],
      "stateMutability": "view",
      "type": "function"
    },
    {
      "inputs": [],
      "name": "totalSupply",
      "outputs": [
        {
          "internalType": "uint256",
          "name": "",
          "type": "uint256"
        }
      ],
      "stateMutability": "view",
      "type": "function"
    },
    {
      "inputs": [
        {
          "internalType": "address",
          "name": "from",
          "type": "address"
        },
        {
          "internalType": "address",
          "name": "to",
          "type": "address"
        },
        {
          "internalType": "uint256",
          "name": "tokenId",
          "type": "uint256"
        }
      ],
      "name": "transferFrom",
      "outputs": [],
      "stateMutability": "nonpayable",
      "type": "function"
    },
    {
      "inputs": [
        {
          "internalType": "address",
          "name": "newOwner",
          "type": "address"
        }
      ],
      "name": "transferOwnership",
      "outputs": [],
      "stateMutability": "nonpayable",
      "type": "function"
    },
    {
      "inputs": [],
      "name": "withdraw",
      "outputs": [],
      "stateMutability": "nonpayable",
      "type": "function"
    },
    {
      "stateMutability": "payable",
      "type": "receive"
    }
  ],
  "bytecode": "0x60806040523480156200001157600080fd5b506040516200400038038062004000833981810160405281019062000037919062000307565b6040518060400160405280600981526020017f5061636966726f706500000000000000000000000000000000000000000000008152506040518060400160405280600481526020017f50434652000000000000000000000000000000000000000000000000000000008152508160009080519060200190620000bb929190620001e5565b508060019080519060200190620000d4929190620001e5565b505050620000f7620000eb6200011760201b60201c565b6200011f60201b60201c565b80600b90805190602001906200010f929190620001e5565b5050620004bc565b600033905090565b6000600a60009054906101000a900473ffffffffffffffffffffffffffffffffffffffff16905081600a60006101000a81548173ffffffffffffffffffffffffffffffffffffffff021916908373ffffffffffffffffffffffffffffffffffffffff1602179055508173ffffffffffffffffffffffffffffffffffffffff168173ffffffffffffffffffffffffffffffffffffffff167f8be0079c531659141344cd1fd0a4f28419497f9722a3daafe3b4186f6b6457e060405160405180910390a35050565b828054620001f390620003e1565b90600052602060002090601f01602090048101928262000217576000855562000263565b82601f106200023257805160ff191683800117855562000263565b8280016001018555821562000263579182015b828111156200026257825182559160200191906001019062000245565b5b50905062000272919062000276565b5090565b5b808211156200029157600081600090555060010162000277565b5090565b6000620002ac620002a68462000375565b6200034c565b905082815260208101848484011115620002c557600080fd5b620002d2848285620003ab565b509392505050565b600082601f830112620002ec57600080fd5b8151620002fe84826020860162000295565b91505092915050565b6000602082840312156200031a57600080fd5b600082015167ffffffffffffffff8111156200033557600080fd5b6200034384828501620002da565b91505092915050565b6000620003586200036b565b905062000366828262000417565b919050565b6000604051905090565b600067ffffffffffffffff8211156200039357620003926200047c565b5b6200039e82620004ab565b9050602081019050919050565b60005b83811015620003cb578082015181840152602081019050620003ae565b83811115620003db576000848401525b50505050565b60006002820490506001821680620003fa57607f821691505b602082108114156200041157620004106200044d565b5b50919050565b6200042282620004ab565b810181811067ffffffffffffffff821117156200044457620004436200047c565b5b80604052505050565b7f4e487b7100000000000000000000000000000000000000000000000000000000600052602260045260246000fd5b7f4e487b7100000000000000000000000000000000000000000000000000000000600052604160045260246000fd5b6000601f19601f8301169050919050565b613b3480620004cc6000396000f3fe6080604052600436106101855760003560e01c80636352211e116100d15780638da5cb5b1161008a578063b88d4fde11610064578063b88d4fde14610559578063c87b56dd14610582578063e985e9c5146105bf578063f2fde38b146105fc5761018c565b80638da5cb5b146104da57806395d89b4114610505578063a22cb465146105305761018c565b80636352211e146103c85780636da612d81461040557806370a0823114610430578063714cff561461046d578063715018a6146104985780638d859f3e146104af5761018c565b806316c61ccc1161013e5780632f745c59116101185780632f745c591461030e5780633ccfd60b1461034b57806342842e0e146103625780634f6ccce71461038b5761018c565b806316c61ccc1461028f57806318160ddd146102ba57806323b872dd146102e55761018c565b806301ffc9a71461018e57806306fdde03146101cb578063081812fc146101f6578063095ea7b3146102335780631249c58b1461025c57806316c38b3c146102665761018c565b3661018c57005b005b34801561019a57600080fd5b506101b560048036038101906101b091906128c7565b610625565b6040516101c29190612e05565b60405180910390f35b3480156101d757600080fd5b506101e061069f565b6040516101ed9190612e20565b60405180910390f35b34801561020257600080fd5b5061021d60048036038101906102189190612919565b610731565b60405161022a9190612d9e565b60405180910390f35b34801561023f57600080fd5b5061025a60048036038101906102559190612862565b6107b6565b005b6102646108ce565b005b34801561027257600080fd5b5061028d6004803603810190610288919061289e565b6109d5565b005b34801561029b57600080fd5b506102a4610a6e565b6040516102b19190612e05565b60405180910390f35b3480156102c657600080fd5b506102cf610a81565b6040516102dc9190613102565b60405180910390f35b3480156102f157600080fd5b5061030c6004803603810190610307919061275c565b610a8e565b005b34801561031a57600080fd5b5061033560048036038101906103309190612862565b610aee565b6040516103429190613102565b60405180910390f35b34801561035757600080fd5b50610360610b93565b005b34801561036e57600080fd5b506103896004803603810190610384919061275c565b610cd1565b005b34801561039757600080fd5b506103b260048036038101906103ad9190612919565b610cf1565b6040516103bf9190613102565b60405180910390f35b3480156103d457600080fd5b506103ef60048036038101906103ea9190612919565b610d88565b6040516103fc9190612d9e565b60405180910390f35b34801561041157600080fd5b5061041a610e3a565b6040516104279190613102565b60405180910390f35b34801561043c57600080fd5b50610457600480360381019061045291906126f7565b610e3f565b6040516104649190613102565b60405180910390f35b34801561047957600080fd5b50610482610ef7565b60405161048f9190613102565b60405180910390f35b3480156104a457600080fd5b506104ad610efd565b005b3480156104bb57600080fd5b506104c4610f85565b6040516104d19190613102565b60405180910390f35b3480156104e657600080fd5b506104ef610f90565b6040516104fc9190612d9e565b60405180910390f35b34801561051157600080fd5b5061051a610fba565b6040516105279190612e20565b60405180910390f35b34801561053c57600080fd5b5061055760048036038101906105529190612826565b61104c565b005b34801561056557600080fd5b50610580600480360381019061057b91906127ab565b611062565b005b34801561058e57600080fd5b506105a960048036038101906105a49190612919565b6110c4565b6040516105b69190612e20565b60405180910390f35b3480156105cb57600080fd5b506105e660048036038101906105e19190612720565b61116b565b6040516105f39190612e05565b60405180910390f35b34801561060857600080fd5b50610623600480360381019061061e91906126f7565b6111ff565b005b60007f780e9d63000000000000000000000000000000000000000000000000000000007bffffffffffffffffffffffffffffffffffffffffffffffffffffffff1916827bffffffffffffffffffffffffffffffffffffffffffffffffffffffff191614806106985750610697826112f7565b5b9050919050565b6060600080546106ae90613332565b80601f01602080910402602001604051908101604052809291908181526020018280546106da90613332565b80156107275780601f106106fc57610100808354040283529160200191610727565b820191906000526020600020905b81548152906001019060200180831161070a57829003601f168201915b5050505050905090565b600061073c826113d9565b61077b576040517f08c379a000000000000000000000000000000000000000000000000000000000815260040161077290613002565b60405180910390fd5b6004600083815260200190815260200160002060009054906101000a900473ffffffffffffffffffffffffffffffffffffffff169050919050565b60006107c182610d88565b90508073ffffffffffffffffffffffffffffffffffffffff168373ffffffffffffffffffffffffffffffffffffffff161415610832576040517f08c379a000000000000000000000000000000000000000000000000000000000815260040161082990613082565b60405180910390fd5b8073ffffffffffffffffffffffffffffffffffffffff16610851611445565b73ffffffffffffffffffffffffffffffffffffffff161480610880575061087f8161087a611445565b61116b565b5b6108bf576040517f08c379a00000000000000000000000000000000000000000000000000000000081526004016108b690612f82565b60405180910390fd5b6108c9838361144d565b505050565b600c60009054906101000a900460ff161561091e576040517f08c379a000000000000000000000000000000000000000000000000000000000815260040161091590613062565b60405180910390fd5b600a600d5410610963576040517f08c379a000000000000000000000000000000000000000000000000000000000815260040161095a90612ee2565b60405180910390fd5b662386f26fc100003410156109ad576040517f08c379a00000000000000000000000000000000000000000000000000000000081526004016109a4906130a2565b60405180910390fd5b6001600d60008282546109c091906131c1565b925050819055506109d333600d54611506565b565b6109dd611445565b73ffffffffffffffffffffffffffffffffffffffff166109fb610f90565b73ffffffffffffffffffffffffffffffffffffffff1614610a51576040517f08c379a0000000000000000000000000000000000000000000000000000000008152600401610a4890613022565b60405180910390fd5b80600c60006101000a81548160ff02191690831515021790555050565b600c60009054906101000a900460ff1681565b6000600880549050905090565b610a9f610a99611445565b82611524565b610ade576040517f08c379a0000000000000000000000000000000000000000000000000000000008152600401610ad5906130c2565b60405180910390fd5b610ae9838383611602565b505050565b6000610af983610e3f565b8210610b3a576040517f08c379a0000000000000000000000000000000000000000000000000000000008152600401610b3190612e42565b60405180910390fd5b600660008473ffffffffffffffffffffffffffffffffffffffff1673ffffffffffffffffffffffffffffffffffffffff168152602001908152602001600020600083815260200190815260200160002054905092915050565b610b9b611445565b73ffffffffffffffffffffffffffffffffffffffff16610bb9610f90565b73ffffffffffffffffffffffffffffffffffffffff1614610c0f576040517f08c379a0000000000000000000000000000000000000000000000000000000008152600401610c0690613022565b60405180910390fd5b6000610c19610f90565b9050600047905060008273ffffffffffffffffffffffffffffffffffffffff1682604051610c4690612d89565b60006040518083038185875af1925050503d8060008114610c83576040519150601f19603f3d011682016040523d82523d6000602084013e610c88565b606091505b5050905080610ccc576040517f08c379a0000000000000000000000000000000000000000000000000000000008152600401610cc390612f02565b60405180910390fd5b505050565b610cec83838360405180602001604052806000815250611062565b505050565b6000610cfb610a81565b8210610d3c576040517f08c379a0000000000000000000000000000000000000000000000000000000008152600401610d33906130e2565b60405180910390fd5b60088281548110610d76577f4e487b7100000000000000000000000000000000000000000000000000000000600052603260045260246000fd5b90600052602060002001549050919050565b6000806002600084815260200190815260200160002060009054906101000a900473ffffffffffffffffffffffffffffffffffffffff169050600073ffffffffffffffffffffffffffffffffffffffff168173ffffffffffffffffffffffffffffffffffffffff161415610e31576040517f08c379a0000000000000000000000000000000000000000000000000000000008152600401610e2890612fc2565b60405180910390fd5b80915050919050565b600a81565b60008073ffffffffffffffffffffffffffffffffffffffff168273ffffffffffffffffffffffffffffffffffffffff161415610eb0576040517f08c379a0000000000000000000000000000000000000000000000000000000008152600401610ea790612fa2565b60405180910390fd5b600360008373ffffffffffffffffffffffffffffffffffffffff1673ffffffffffffffffffffffffffffffffffffffff168152602001908152602001600020549050919050565b600d5481565b610f05611445565b73ffffffffffffffffffffffffffffffffffffffff16610f23610f90565b73ffffffffffffffffffffffffffffffffffffffff1614610f79576040517f08c379a0000000000000000000000000000000000000000000000000000000008152600401610f7090613022565b60405180910390fd5b610f836000611869565b565b662386f26fc1000081565b6000600a60009054906101000a900473ffffffffffffffffffffffffffffffffffffffff16905090565b606060018054610fc990613332565b80601f0160208091040260200160405190810160405280929190818152602001828054610ff590613332565b80156110425780601f1061101757610100808354040283529160200191611042565b820191906000526020600020905b81548152906001019060200180831161102557829003601f168201915b5050505050905090565b61105e611057611445565b838361192f565b5050565b61107361106d611445565b83611524565b6110b2576040517f08c379a00000000000000000000000000000000000000000000000000000000081526004016110a9906130c2565b60405180910390fd5b6110be84848484611a9c565b50505050565b60606110cf826113d9565b61110e576040517f08c379a000000000000000000000000000000000000000000000000000000000815260040161110590613042565b60405180910390fd5b6000611118611af8565b905060008151116111385760405180602001604052806000815250611163565b8061114284611b8a565b604051602001611153929190612d5a565b6040516020818303038152906040525b915050919050565b6000600560008473ffffffffffffffffffffffffffffffffffffffff1673ffffffffffffffffffffffffffffffffffffffff16815260200190815260200160002060008373ffffffffffffffffffffffffffffffffffffffff1673ffffffffffffffffffffffffffffffffffffffff16815260200190815260200160002060009054906101000a900460ff16905092915050565b611207611445565b73ffffffffffffffffffffffffffffffffffffffff16611225610f90565b73ffffffffffffffffffffffffffffffffffffffff161461127b576040517f08c379a000000000000000000000000000000000000000000000000000000000815260040161127290613022565b60405180910390fd5b600073ffffffffffffffffffffffffffffffffffffffff168173ffffffffffffffffffffffffffffffffffffffff1614156112eb576040517f08c379a00000000000000000000000000000000000000000000000000000000081526004016112e290612e82565b60405180910390fd5b6112f481611869565b50565b60007f80ac58cd000000000000000000000000000000000000000000000000000000007bffffffffffffffffffffffffffffffffffffffffffffffffffffffff1916827bffffffffffffffffffffffffffffffffffffffffffffffffffffffff191614806113c257507f5b5e139f000000000000000000000000000000000000000000000000000000007bffffffffffffffffffffffffffffffffffffffffffffffffffffffff1916827bffffffffffffffffffffffffffffffffffffffffffffffffffffffff1916145b806113d257506113d182611d37565b5b9050919050565b60008073ffffffffffffffffffffffffffffffffffffffff166002600084815260200190815260200160002060009054906101000a900473ffffffffffffffffffffffffffffffffffffffff1673ffffffffffffffffffffffffffffffffffffffff1614159050919050565b600033905090565b816004600083815260200190815260200160002060006101000a81548173ffffffffffffffffffffffffffffffffffffffff021916908373ffffffffffffffffffffffffffffffffffffffff160217905550808273ffffffffffffffffffffffffffffffffffffffff166114c083610d88565b73ffffffffffffffffffffffffffffffffffffffff167f8c5be1e5ebec7d5bd14f71427d1e84f3dd0314c0f7b2291e5b200ac8c7c3b92560405160405180910390a45050565b611520828260405180602001604052806000815250611da1565b5050565b600061152f826113d9565b61156e576040517f08c379a000000000000000000000000000000000000000000000000000000000815260040161156590612f62565b60405180910390fd5b600061157983610d88565b90508073ffffffffffffffffffffffffffffffffffffffff168473ffffffffffffffffffffffffffffffffffffffff1614806115bb57506115ba818561116b565b5b806115f957508373ffffffffffffffffffffffffffffffffffffffff166115e184610731565b73ffffffffffffffffffffffffffffffffffffffff16145b91505092915050565b8273ffffffffffffffffffffffffffffffffffffffff1661162282610d88565b73ffffffffffffffffffffffffffffffffffffffff1614611678576040517f08c379a000000000000000000000000000000000000000000000000000000000815260040161166f90612ea2565b60405180910390fd5b600073ffffffffffffffffffffffffffffffffffffffff168273ffffffffffffffffffffffffffffffffffffffff1614156116e8576040517f08c379a00000000000000000000000000000000000000000000000000000000081526004016116df90612f22565b60405180910390fd5b6116f3838383611dfc565b6116fe60008261144d565b6001600360008573ffffffffffffffffffffffffffffffffffffffff1673ffffffffffffffffffffffffffffffffffffffff168152602001908152602001600020600082825461174e9190613248565b925050819055506001600360008473ffffffffffffffffffffffffffffffffffffffff1673ffffffffffffffffffffffffffffffffffffffff16815260200190815260200160002060008282546117a591906131c1565b92505081905550816002600083815260200190815260200160002060006101000a81548173ffffffffffffffffffffffffffffffffffffffff021916908373ffffffffffffffffffffffffffffffffffffffff160217905550808273ffffffffffffffffffffffffffffffffffffffff168473ffffffffffffffffffffffffffffffffffffffff167fddf252ad1be2c89b69c2b068fc378daa952ba7f163c4a11628f55a4df523b3ef60405160405180910390a4611864838383611f10565b505050565b6000600a60009054906101000a900473ffffffffffffffffffffffffffffffffffffffff16905081600a60006101000a81548173ffffffffffffffffffffffffffffffffffffffff021916908373ffffffffffffffffffffffffffffffffffffffff1602179055508173ffffffffffffffffffffffffffffffffffffffff168173ffffffffffffffffffffffffffffffffffffffff167f8be0079c531659141344cd1fd0a4f28419497f9722a3daafe3b4186f6b6457e060405160405180910390a35050565b8173ffffffffffffffffffffffffffffffffffffffff168373ffffffffffffffffffffffffffffffffffffffff16141561199e576040517f08c379a000000000000000000000000000000000000000000000000000000000815260040161199590612f42565b60405180910390fd5b80600560008573ffffffffffffffffffffffffffffffffffffffff1673ffffffffffffffffffffffffffffffffffffffff16815260200190815260200160002060008473ffffffffffffffffffffffffffffffffffffffff1673ffffffffffffffffffffffffffffffffffffffff16815260200190815260200160002060006101000a81548160ff0219169083151502179055508173ffffffffffffffffffffffffffffffffffffffff168373ffffffffffffffffffffffffffffffffffffffff167f17307eab39ab6107e8899845ad3d59bd9653f200f220920489ca2b5937696c3183604051611a8f9190612e05565b60405180910390a3505050565b611aa7848484611602565b611ab384848484611f15565b611af2576040517f08c379a0000000000000000000000000000000000000000000000000000000008152600401611ae990612e62565b60405180910390fd5b50505050565b6060600b8054611b0790613332565b80601f0160208091040260200160405190810160405280929190818152602001828054611b3390613332565b8015611b805780601f10611b5557610100808354040283529160200191611b80565b820191906000526020600020905b815481529060010190602001808311611b6357829003601f168201915b5050505050905090565b60606000821415611bd2576040518060400160405280600181526020017f30000000000000000000000000000000000000000000000000000000000000008152509050611d32565b600082905060005b60008214611c04578080611bed90613395565b915050600a82611bfd9190613217565b9150611bda565b60008167ffffffffffffffff811115611c46577f4e487b7100000000000000000000000000000000000000000000000000000000600052604160045260246000fd5b6040519080825280601f01601f191660200182016040528015611c785781602001600182028036833780820191505090505b5090505b60008514611d2b57600182611c919190613248565b9150600a85611ca091906133de565b6030611cac91906131c1565b60f81b818381518110611ce8577f4e487b7100000000000000000000000000000000000000000000000000000000600052603260045260246000fd5b60200101907effffffffffffffffffffffffffffffffffffffffffffffffffffffffffffff1916908160001a905350600a85611d249190613217565b9450611c7c565b8093505050505b919050565b60007f01ffc9a7000000000000000000000000000000000000000000000000000000007bffffffffffffffffffffffffffffffffffffffffffffffffffffffff1916827bffffffffffffffffffffffffffffffffffffffffffffffffffffffff1916149050919050565b611dab83836120ac565b611db86000848484611f15565b611df7576040517f08c379a0000000000000000000000000000000000000000000000000000000008152600401611dee90612e62565b60405180910390fd5b505050565b611e07838383612286565b600073ffffffffffffffffffffffffffffffffffffffff168373ffffffffffffffffffffffffffffffffffffffff161415611e4a57611e458161228b565b611e89565b8173ffffffffffffffffffffffffffffffffffffffff168373ffffffffffffffffffffffffffffffffffffffff1614611e8857611e8783826122d4565b5b5b600073ffffffffffffffffffffffffffffffffffffffff168273ffffffffffffffffffffffffffffffffffffffff161415611ecc57611ec781612441565b611f0b565b8273ffffffffffffffffffffffffffffffffffffffff168273ffffffffffffffffffffffffffffffffffffffff1614611f0a57611f098282612584565b5b5b505050565b505050565b6000611f368473ffffffffffffffffffffffffffffffffffffffff16612603565b1561209f578373ffffffffffffffffffffffffffffffffffffffff1663150b7a02611f5f611445565b8786866040518563ffffffff1660e01b8152600401611f819493929190612db9565b602060405180830381600087803b158015611f9b57600080fd5b505af1925050508015611fcc57506040513d601f19601f82011682018060405250810190611fc991906128f0565b60015b61204f573d8060008114611ffc576040519150601f19603f3d011682016040523d82523d6000602084013e612001565b606091505b50600081511415612047576040517f08c379a000000000000000000000000000000000000000000000000000000000815260040161203e90612e62565b60405180910390fd5b805181602001fd5b63150b7a0260e01b7bffffffffffffffffffffffffffffffffffffffffffffffffffffffff1916817bffffffffffffffffffffffffffffffffffffffffffffffffffffffff1916149150506120a4565b600190505b949350505050565b600073ffffffffffffffffffffffffffffffffffffffff168273ffffffffffffffffffffffffffffffffffffffff16141561211c576040517f08c379a000000000000000000000000000000000000000000000000000000000815260040161211390612fe2565b60405180910390fd5b612125816113d9565b15612165576040517f08c379a000000000000000000000000000000000000000000000000000000000815260040161215c90612ec2565b60405180910390fd5b61217160008383611dfc565b6001600360008473ffffffffffffffffffffffffffffffffffffffff1673ffffffffffffffffffffffffffffffffffffffff16815260200190815260200160002060008282546121c191906131c1565b92505081905550816002600083815260200190815260200160002060006101000a81548173ffffffffffffffffffffffffffffffffffffffff021916908373ffffffffffffffffffffffffffffffffffffffff160217905550808273ffffffffffffffffffffffffffffffffffffffff16600073ffffffffffffffffffffffffffffffffffffffff167fddf252ad1be2c89b69c2b068fc378daa952ba7f163c4a11628f55a4df523b3ef60405160405180910390a461228260008383611f10565b5050565b505050565b6008805490506009600083815260200190815260200160002081905550600881908060018154018082558091505060019003906000526020600020016000909190919091505550565b600060016122e184610e3f565b6122eb9190613248565b90506000600760008481526020019081526020016000205490508181146123d0576000600660008673ffffffffffffffffffffffffffffffffffffffff1673ffffffffffffffffffffffffffffffffffffffff168152602001908152602001600020600084815260200190815260200160002054905080600660008773ffffffffffffffffffffffffffffffffffffffff1673ffffffffffffffffffffffffffffffffffffffff168152602001908152602001600020600084815260200190815260200160002081905550816007600083815260200190815260200160002081905550505b6007600084815260200190815260200160002060009055600660008573ffffffffffffffffffffffffffffffffffffffff1673ffffffffffffffffffffffffffffffffffffffff16815260200190815260200160002060008381526020019081526020016000206000905550505050565b600060016008805490506124559190613248565b90506000600960008481526020019081526020016000205490506000600883815481106124ab577f4e487b7100000000000000000000000000000000000000000000000000000000600052603260045260246000fd5b9060005260206000200154905080600883815481106124f3577f4e487b7100000000000000000000000000000000000000000000000000000000600052603260045260246000fd5b906000526020600020018190555081600960008381526020019081526020016000208190555060096000858152602001908152602001600020600090556008805480612568577f4e487b7100000000000000000000000000000000000000000000000000000000600052603160045260246000fd5b6001900381819060005260206000200160009055905550505050565b600061258f83610e3f565b905081600660008573ffffffffffffffffffffffffffffffffffffffff1673ffffffffffffffffffffffffffffffffffffffff168152602001908152602001600020600083815260200190815260200160002081905550806007600084815260200190815260200160002081905550505050565b6000808273ffffffffffffffffffffffffffffffffffffffff163b119050919050565b600061263961263484613142565b61311d565b90508281526020810184848401111561265157600080fd5b61265c8482856132f0565b509392505050565b60008135905061267381613aa2565b92915050565b60008135905061268881613ab9565b92915050565b60008135905061269d81613ad0565b92915050565b6000815190506126b281613ad0565b92915050565b600082601f8301126126c957600080fd5b81356126d9848260208601612626565b91505092915050565b6000813590506126f181613ae7565b92915050565b60006020828403121561270957600080fd5b600061271784828501612664565b91505092915050565b6000806040838503121561273357600080fd5b600061274185828601612664565b925050602061275285828601612664565b9150509250929050565b60008060006060848603121561277157600080fd5b600061277f86828701612664565b935050602061279086828701612664565b92505060406127a1868287016126e2565b9150509250925092565b600080600080608085870312156127c157600080fd5b60006127cf87828801612664565b94505060206127e087828801612664565b93505060406127f1878288016126e2565b925050606085013567ffffffffffffffff81111561280e57600080fd5b61281a878288016126b8565b91505092959194509250565b6000806040838503121561283957600080fd5b600061284785828601612664565b925050602061285885828601612679565b9150509250929050565b6000806040838503121561287557600080fd5b600061288385828601612664565b9250506020612894858286016126e2565b9150509250929050565b6000602082840312156128b057600080fd5b60006128be84828501612679565b91505092915050565b6000602082840312156128d957600080fd5b60006128e78482850161268e565b91505092915050565b60006020828403121561290257600080fd5b6000612910848285016126a3565b91505092915050565b60006020828403121561292b57600080fd5b6000612939848285016126e2565b91505092915050565b61294b8161327c565b82525050565b61295a8161328e565b82525050565b600061296b82613173565b6129758185613189565b93506129858185602086016132ff565b61298e816134cb565b840191505092915050565b60006129a48261317e565b6129ae81856131a5565b93506129be8185602086016132ff565b6129c7816134cb565b840191505092915050565b60006129dd8261317e565b6129e781856131b6565b93506129f78185602086016132ff565b80840191505092915050565b6000612a10602b836131a5565b9150612a1b826134dc565b604082019050919050565b6000612a336032836131a5565b9150612a3e8261352b565b604082019050919050565b6000612a566026836131a5565b9150612a618261357a565b604082019050919050565b6000612a796025836131a5565b9150612a84826135c9565b604082019050919050565b6000612a9c601c836131a5565b9150612aa782613618565b602082019050919050565b6000612abf601b836131a5565b9150612aca82613641565b602082019050919050565b6000612ae26014836131a5565b9150612aed8261366a565b602082019050919050565b6000612b056024836131a5565b9150612b1082613693565b604082019050919050565b6000612b286019836131a5565b9150612b33826136e2565b602082019050919050565b6000612b4b602c836131a5565b9150612b568261370b565b604082019050919050565b6000612b6e6038836131a5565b9150612b798261375a565b604082019050919050565b6000612b91602a836131a5565b9150612b9c826137a9565b604082019050919050565b6000612bb46029836131a5565b9150612bbf826137f8565b604082019050919050565b6000612bd76020836131a5565b9150612be282613847565b602082019050919050565b6000612bfa602c836131a5565b9150612c0582613870565b604082019050919050565b6000612c1d6005836131b6565b9150612c28826138bf565b600582019050919050565b6000612c406020836131a5565b9150612c4b826138e8565b602082019050919050565b6000612c63602f836131a5565b9150612c6e82613911565b604082019050919050565b6000612c866019836131a5565b9150612c9182613960565b602082019050919050565b6000612ca96021836131a5565b9150612cb482613989565b604082019050919050565b6000612ccc6019836131a5565b9150612cd7826139d8565b602082019050919050565b6000612cef60008361319a565b9150612cfa82613a01565b600082019050919050565b6000612d126031836131a5565b9150612d1d82613a04565b604082019050919050565b6000612d35602c836131a5565b9150612d4082613a53565b604082019050919050565b612d54816132e6565b82525050565b6000612d6682856129d2565b9150612d7282846129d2565b9150612d7d82612c10565b91508190509392505050565b6000612d9482612ce2565b9150819050919050565b6000602082019050612db36000830184612942565b92915050565b6000608082019050612dce6000830187612942565b612ddb6020830186612942565b612de86040830185612d4b565b8181036060830152612dfa8184612960565b905095945050505050565b6000602082019050612e1a6000830184612951565b92915050565b60006020820190508181036000830152612e3a8184612999565b905092915050565b60006020820190508181036000830152612e5b81612a03565b9050919050565b60006020820190508181036000830152612e7b81612a26565b9050919050565b60006020820190508181036000830152612e9b81612a49565b9050919050565b60006020820190508181036000830152612ebb81612a6c565b9050919050565b60006020820190508181036000830152612edb81612a8f565b9050919050565b60006020820190508181036000830152612efb81612ab2565b9050919050565b60006020820190508181036000830152612f1b81612ad5565b9050919050565b60006020820190508181036000830152612f3b81612af8565b9050919050565b60006020820190508181036000830152612f5b81612b1b565b9050919050565b60006020820190508181036000830152612f7b81612b3e565b9050919050565b60006020820190508181036000830152612f9b81612b61565b9050919050565b60006020820190508181036000830152612fbb81612b84565b9050919050565b60006020820190508181036000830152612fdb81612ba7565b9050919050565b60006020820190508181036000830152612ffb81612bca565b9050919050565b6000602082019050818103600083015261301b81612bed565b9050919050565b6000602082019050818103600083015261303b81612c33565b9050919050565b6000602082019050818103600083015261305b81612c56565b9050919050565b6000602082019050818103600083015261307b81612c79565b9050919050565b6000602082019050818103600083015261309b81612c9c565b9050919050565b600060208201905081810360008301526130bb81612cbf565b9050919050565b600060208201905081810360008301526130db81612d05565b9050919050565b600060208201905081810360008301526130fb81612d28565b9050919050565b60006020820190506131176000830184612d4b565b92915050565b6000613127613138565b90506131338282613364565b919050565b6000604051905090565b600067ffffffffffffffff82111561315d5761315c61349c565b5b613166826134cb565b9050602081019050919050565b600081519050919050565b600081519050919050565b600082825260208201905092915050565b600081905092915050565b600082825260208201905092915050565b600081905092915050565b60006131cc826132e6565b91506131d7836132e6565b9250827fffffffffffffffffffffffffffffffffffffffffffffffffffffffffffffffff0382111561320c5761320b61340f565b5b828201905092915050565b6000613222826132e6565b915061322d836132e6565b92508261323d5761323c61343e565b5b828204905092915050565b6000613253826132e6565b915061325e836132e6565b9250828210156132715761327061340f565b5b828203905092915050565b6000613287826132c6565b9050919050565b60008115159050919050565b60007fffffffff0000000000000000000000000000000000000000000000000000000082169050919050565b600073ffffffffffffffffffffffffffffffffffffffff82169050919050565b6000819050919050565b82818337600083830152505050565b60005b8381101561331d578082015181840152602081019050613302565b8381111561332c576000848401525b50505050565b6000600282049050600182168061334a57607f821691505b6020821081141561335e5761335d61346d565b5b50919050565b61336d826134cb565b810181811067ffffffffffffffff8211171561338c5761338b61349c565b5b80604052505050565b60006133a0826132e6565b91507fffffffffffffffffffffffffffffffffffffffffffffffffffffffffffffffff8214156133d3576133d261340f565b5b600182019050919050565b60006133e9826132e6565b91506133f4836132e6565b9250826134045761340361343e565b5b828206905092915050565b7f4e487b7100000000000000000000000000000000000000000000000000000000600052601160045260246000fd5b7f4e487b7100000000000000000000000000000000000000000000000000000000600052601260045260246000fd5b7f4e487b7100000000000000000000000000000000000000000000000000000000600052602260045260246000fd5b7f4e487b7100000000000000000000000000000000000000000000000000000000600052604160045260246000fd5b6000601f19601f8301169050919050565b7f455243373231456e756d657261626c653a206f776e657220696e646578206f7560008201527f74206f6620626f756e6473000000000000000000000000000000000000000000602082015250565b7f4552433732313a207472616e7366657220746f206e6f6e20455243373231526560008201527f63656976657220696d706c656d656e7465720000000000000000000000000000602082015250565b7f4f776e61626c653a206e6577206f776e657220697320746865207a65726f206160008201527f6464726573730000000000000000000000000000000000000000000000000000602082015250565b7f4552433732313a207472616e736665722066726f6d20696e636f72726563742060008201527f6f776e6572000000000000000000000000000000000000000000000000000000602082015250565b7f4552433732313a20746f6b656e20616c7265616479206d696e74656400000000600082015250565b7f457863656564206d6178696d756d2050756e6b7320737570706c790000000000600082015250565b7f4661696c656420746f2073656e64204574686572000000000000000000000000600082015250565b7f4552433732313a207472616e7366657220746f20746865207a65726f2061646460008201527f7265737300000000000000000000000000000000000000000000000000000000602082015250565b7f4552433732313a20617070726f766520746f2063616c6c657200000000000000600082015250565b7f4552433732313a206f70657261746f7220717565727920666f72206e6f6e657860008201527f697374656e7420746f6b656e0000000000000000000000000000000000000000602082015250565b7f4552433732313a20617070726f76652063616c6c6572206973206e6f74206f7760008201527f6e6572206e6f7220617070726f76656420666f7220616c6c0000000000000000602082015250565b7f4552433732313a2062616c616e636520717565727920666f7220746865207a6560008201527f726f206164647265737300000000000000000000000000000000000000000000602082015250565b7f4552433732313a206f776e657220717565727920666f72206e6f6e657869737460008201527f656e7420746f6b656e0000000000000000000000000000000000000000000000602082015250565b7f4552433732313a206d696e7420746f20746865207a65726f2061646472657373600082015250565b7f4552433732313a20617070726f76656420717565727920666f72206e6f6e657860008201527f697374656e7420746f6b656e0000000000000000000000000000000000000000602082015250565b7f2e6a736f6e000000000000000000000000000000000000000000000000000000600082015250565b7f4f776e61626c653a2063616c6c6572206973206e6f7420746865206f776e6572600082015250565b7f4552433732314d657461646174613a2055524920717565727920666f72206e6f60008201527f6e6578697374656e7420746f6b656e0000000000000000000000000000000000602082015250565b7f436f6e74726163742063757272656e746c792070617573656400000000000000600082015250565b7f4552433732313a20617070726f76616c20746f2063757272656e74206f776e6560008201527f7200000000000000000000000000000000000000000000000000000000000000602082015250565b7f45746865722073656e74206973206e6f7420636f727265637400000000000000600082015250565b50565b7f4552433732313a207472616e736665722063616c6c6572206973206e6f74206f60008201527f776e6572206e6f7220617070726f766564000000000000000000000000000000602082015250565b7f455243373231456e756d657261626c653a20676c6f62616c20696e646578206f60008201527f7574206f6620626f756e64730000000000000000000000000000000000000000602082015250565b613aab8161327c565b8114613ab657600080fd5b50565b613ac28161328e565b8114613acd57600080fd5b50565b613ad98161329a565b8114613ae457600080fd5b50565b613af0816132e6565b8114613afb57600080fd5b5056fea2646970667358221220f8dde71f8055f13d697424ab9dbd4acfdddd22e7a965413c5ae1e2f8cb55830164736f6c63430008040033",
  "linkReferences": {},
  "deployedLinkReferences": {}
}