{
  "_format": "hh-sol-artifact-1",
  "contractName": "MakerContract",
  "sourceName": "contracts/MakerContract.sol",
  "abi": [
    {
      "inputs": [
        {
          "internalType": "string",
          "name": "_companyName",
          "type": "string"
        },
        {
          "internalType": "string",
          "name": "_logoIpfsUrl",
          "type": "string"
        }
      ],
      "stateMutability": "nonpayable",
      "type": "constructor"
    },
    {
      "inputs": [
        {
          "internalType": "address",
          "name": "_newAdmin",
          "type": "address"
        }
      ],
      "name": "addAdmin",
      "outputs": [],
      "stateMutability": "nonpayable",
      "type": "function"
    },
    {
      "inputs": [
        {
          "internalType": "address",
          "name": "_address",
          "type": "address"
        }
      ],
      "name": "addContract",
      "outputs": [],
      "stateMutability": "nonpayable",
      "type": "function"
    },
    {
      "inputs": [
        {
          "internalType": "uint256",
          "name": "_index",
          "type": "uint256"
        }
      ],
      "name": "getAdmin",
      "outputs": [
        {
          "internalType": "address",
          "name": "",
          "type": "address"
        }
      ],
      "stateMutability": "view",
      "type": "function"
    },
    {
      "inputs": [],
      "name": "getAdminCount",
      "outputs": [
        {
          "internalType": "uint256",
          "name": "",
          "type": "uint256"
        }
      ],
      "stateMutability": "view",
      "type": "function"
    },
    {
      "inputs": [],
      "name": "getCompanyName",
      "outputs": [
        {
          "internalType": "string",
          "name": "",
          "type": "string"
        }
      ],
      "stateMutability": "view",
      "type": "function"
    },
    {
      "inputs": [],
      "name": "getContractCount",
      "outputs": [
        {
          "internalType": "uint256",
          "name": "",
          "type": "uint256"
        }
      ],
      "stateMutability": "view",
      "type": "function"
    },
    {
      "inputs": [],
      "name": "getContracts",
      "outputs": [
        {
          "internalType": "address[]",
          "name": "",
          "type": "address[]"
        }
      ],
      "stateMutability": "view",
      "type": "function"
    },
    {
      "inputs": [],
      "name": "getLogoUri",
      "outputs": [
        {
          "internalType": "string",
          "name": "",
          "type": "string"
        }
      ],
      "stateMutability": "view",
      "type": "function"
    }
  ],
  "bytecode": "0x60806040523480156200001157600080fd5b5060405162000ee438038062000ee48339818101604052810190620000379190620001f6565b6000339080600181540180825580915050600190039060005260206000200160009091909190916101000a81548173ffffffffffffffffffffffffffffffffffffffff021916908373ffffffffffffffffffffffffffffffffffffffff1602179055508160029080519060200190620000b2929190620000d4565b508060039080519060200190620000cb929190620000d4565b505050620003d9565b828054620000e290620002fe565b90600052602060002090601f01602090048101928262000106576000855562000152565b82601f106200012157805160ff191683800117855562000152565b8280016001018555821562000152579182015b828111156200015157825182559160200191906001019062000134565b5b50905062000161919062000165565b5090565b5b808211156200018057600081600090555060010162000166565b5090565b60006200019b620001958462000292565b62000269565b905082815260208101848484011115620001b457600080fd5b620001c1848285620002c8565b509392505050565b600082601f830112620001db57600080fd5b8151620001ed84826020860162000184565b91505092915050565b600080604083850312156200020a57600080fd5b600083015167ffffffffffffffff8111156200022557600080fd5b6200023385828601620001c9565b925050602083015167ffffffffffffffff8111156200025157600080fd5b6200025f85828601620001c9565b9150509250929050565b60006200027562000288565b905062000283828262000334565b919050565b6000604051905090565b600067ffffffffffffffff821115620002b057620002af62000399565b5b620002bb82620003c8565b9050602081019050919050565b60005b83811015620002e8578082015181840152602081019050620002cb565b83811115620002f8576000848401525b50505050565b600060028204905060018216806200031757607f821691505b602082108114156200032e576200032d6200036a565b5b50919050565b6200033f82620003c8565b810181811067ffffffffffffffff8211171562000361576200036062000399565b5b80604052505050565b7f4e487b7100000000000000000000000000000000000000000000000000000000600052602260045260246000fd5b7f4e487b7100000000000000000000000000000000000000000000000000000000600052604160045260246000fd5b6000601f19601f8301169050919050565b610afb80620003e96000396000f3fe608060405234801561001057600080fd5b50600436106100885760003560e01c80638b7bf3eb1161005b5780638b7bf3eb146101135780639399869d14610131578063c3a2a93a1461014f578063e7b83bed1461016d57610088565b8063111fd88b1461008d57806343cfbd65146100bd5780635f539d69146100db57806370480275146100f7575b600080fd5b6100a760048036038101906100a291906106fe565b61018b565b6040516100b49190610826565b60405180910390f35b6100c56101f8565b6040516100d29190610863565b60405180910390f35b6100f560048036038101906100f091906106d5565b61028a565b005b610111600480360381019061010c91906106d5565b6103fe565b005b61011b610572565b60405161012891906108a5565b60405180910390f35b61013961057e565b60405161014691906108a5565b60405180910390f35b61015761058b565b6040516101649190610841565b60405180910390f35b610175610619565b6040516101829190610863565b60405180910390f35b60008082815481106101c6577f4e487b7100000000000000000000000000000000000000000000000000000000600052603260045260246000fd5b9060005260206000200160009054906101000a900473ffffffffffffffffffffffffffffffffffffffff169050919050565b60606002805461020790610984565b80601f016020809104026020016040519081016040528092919081815260200182805461023390610984565b80156102805780601f1061025557610100808354040283529160200191610280565b820191906000526020600020905b81548152906001019060200180831161026357829003601f168201915b5050505050905090565b6000805b60008054905081101561034f57600081815481106102d5577f4e487b7100000000000000000000000000000000000000000000000000000000600052603260045260246000fd5b9060005260206000200160009054906101000a900473ffffffffffffffffffffffffffffffffffffffff1673ffffffffffffffffffffffffffffffffffffffff163373ffffffffffffffffffffffffffffffffffffffff16141561033c576001915061034f565b8080610347906109b6565b91505061028e565b506001151581151514610397576040517f08c379a000000000000000000000000000000000000000000000000000000000815260040161038e90610885565b60405180910390fd5b6001829080600181540180825580915050600190039060005260206000200160009091909190916101000a81548173ffffffffffffffffffffffffffffffffffffffff021916908373ffffffffffffffffffffffffffffffffffffffff1602179055505050565b6000805b6000805490508110156104c35760008181548110610449577f4e487b7100000000000000000000000000000000000000000000000000000000600052603260045260246000fd5b9060005260206000200160009054906101000a900473ffffffffffffffffffffffffffffffffffffffff1673ffffffffffffffffffffffffffffffffffffffff163373ffffffffffffffffffffffffffffffffffffffff1614156104b057600191506104c3565b80806104bb906109b6565b915050610402565b50600115158115151461050b576040517f08c379a000000000000000000000000000000000000000000000000000000000815260040161050290610885565b60405180910390fd5b6000829080600181540180825580915050600190039060005260206000200160009091909190916101000a81548173ffffffffffffffffffffffffffffffffffffffff021916908373ffffffffffffffffffffffffffffffffffffffff1602179055505050565b60008080549050905090565b6000600180549050905090565b6060600180548060200260200160405190810160405280929190818152602001828054801561060f57602002820191906000526020600020905b8160009054906101000a900473ffffffffffffffffffffffffffffffffffffffff1673ffffffffffffffffffffffffffffffffffffffff16815260200190600101908083116105c5575b5050505050905090565b60606003805461062890610984565b80601f016020809104026020016040519081016040528092919081815260200182805461065490610984565b80156106a15780601f10610676576101008083540402835291602001916106a1565b820191906000526020600020905b81548152906001019060200180831161068457829003601f168201915b5050505050905090565b6000813590506106ba81610a97565b92915050565b6000813590506106cf81610aae565b92915050565b6000602082840312156106e757600080fd5b60006106f5848285016106ab565b91505092915050565b60006020828403121561071057600080fd5b600061071e848285016106c0565b91505092915050565b6000610733838361073f565b60208301905092915050565b61074881610915565b82525050565b61075781610915565b82525050565b6000610768826108d0565b61077281856108f3565b935061077d836108c0565b8060005b838110156107ae5781516107958882610727565b97506107a0836108e6565b925050600181019050610781565b5085935050505092915050565b60006107c6826108db565b6107d08185610904565b93506107e0818560208601610951565b6107e981610a5d565b840191505092915050565b6000610801601883610904565b915061080c82610a6e565b602082019050919050565b61082081610947565b82525050565b600060208201905061083b600083018461074e565b92915050565b6000602082019050818103600083015261085b818461075d565b905092915050565b6000602082019050818103600083015261087d81846107bb565b905092915050565b6000602082019050818103600083015261089e816107f4565b9050919050565b60006020820190506108ba6000830184610817565b92915050565b6000819050602082019050919050565b600081519050919050565b600081519050919050565b6000602082019050919050565b600082825260208201905092915050565b600082825260208201905092915050565b600061092082610927565b9050919050565b600073ffffffffffffffffffffffffffffffffffffffff82169050919050565b6000819050919050565b60005b8381101561096f578082015181840152602081019050610954565b8381111561097e576000848401525b50505050565b6000600282049050600182168061099c57607f821691505b602082108114156109b0576109af610a2e565b5b50919050565b60006109c182610947565b91507fffffffffffffffffffffffffffffffffffffffffffffffffffffffffffffffff8214156109f4576109f36109ff565b5b600182019050919050565b7f4e487b7100000000000000000000000000000000000000000000000000000000600052601160045260246000fd5b7f4e487b7100000000000000000000000000000000000000000000000000000000600052602260045260246000fd5b6000601f19601f8301169050919050565b7f4f6e6c792041646d696e732063616e20646f2074686973210000000000000000600082015250565b610aa081610915565b8114610aab57600080fd5b50565b610ab781610947565b8114610ac257600080fd5b5056fea26469706673582212208b9f7c7b408e978007ce99aa829dc46c9fb5afceae4a2b1341837912cf49cb1f64736f6c63430008040033",
  "linkReferences": {},
  "deployedLinkReferences": {}
}