{
  "_format": "hh-sol-artifact-1",
  "contractName": "StubNFTMarketplaceImpl",
  "sourceName": "contracts/StubNFTMarketplaceImpl.sol",
  "abi": [
    {
      "inputs": [],
      "stateMutability": "nonpayable",
      "type": "constructor"
    },
    {
      "anonymous": false,
      "inputs": [
        {
          "indexed": true,
          "internalType": "address",
          "name": "nftContractAddress",
          "type": "address"
        },
        {
          "indexed": true,
          "internalType": "address",
          "name": "buyer",
          "type": "address"
        },
        {
          "indexed": false,
          "internalType": "uint256",
          "name": "tokenId",
          "type": "uint256"
        }
      ],
      "name": "BuyItem",
      "type": "event"
    },
    {
      "anonymous": false,
      "inputs": [
        {
          "indexed": true,
          "internalType": "address",
          "name": "nftContractAddress",
          "type": "address"
        },
        {
          "indexed": true,
          "internalType": "address",
          "name": "seller",
          "type": "address"
        }
      ],
      "name": "CreateNftCollectionContract",
      "type": "event"
    },
    {
      "inputs": [
        {
          "internalType": "address",
          "name": "_maker",
          "type": "address"
        },
        {
          "internalType": "address",
          "name": "_newProductLine",
          "type": "address"
        }
      ],
      "name": "addMakerProductLines",
      "outputs": [],
      "stateMutability": "nonpayable",
      "type": "function"
    },
    {
      "inputs": [
        {
          "internalType": "address",
          "name": "collectionAddress",
          "type": "address"
        }
      ],
      "name": "buyItem",
      "outputs": [
        {
          "internalType": "uint256",
          "name": "",
          "type": "uint256"
        }
      ],
      "stateMutability": "payable",
      "type": "function"
    },
    {
      "inputs": [
        {
          "components": [
            {
              "internalType": "string",
              "name": "productName",
              "type": "string"
            },
            {
              "internalType": "string",
              "name": "symbol",
              "type": "string"
            },
            {
              "internalType": "string",
              "name": "metadataURI",
              "type": "string"
            },
            {
              "internalType": "string",
              "name": "imageURI",
              "type": "string"
            },
            {
              "internalType": "address",
              "name": "makerAddress",
              "type": "address"
            },
            {
              "internalType": "address",
              "name": "nftContractAddress",
              "type": "address"
            },
            {
              "internalType": "uint256",
              "name": "price",
              "type": "uint256"
            }
          ],
          "internalType": "struct Models.NftCollection",
          "name": "_newNftCollection",
          "type": "tuple"
        }
      ],
      "name": "createNftCollectionContract",
      "outputs": [],
      "stateMutability": "nonpayable",
      "type": "function"
    },
    {
      "inputs": [],
      "name": "getAllCollectionsForSale",
      "outputs": [
        {
          "components": [
            {
              "internalType": "string",
              "name": "productName",
              "type": "string"
            },
            {
              "internalType": "string",
              "name": "symbol",
              "type": "string"
            },
            {
              "internalType": "string",
              "name": "metadataURI",
              "type": "string"
            },
            {
              "internalType": "string",
              "name": "imageURI",
              "type": "string"
            },
            {
              "internalType": "address",
              "name": "makerAddress",
              "type": "address"
            },
            {
              "internalType": "address",
              "name": "nftContractAddress",
              "type": "address"
            },
            {
              "internalType": "uint256",
              "name": "price",
              "type": "uint256"
            }
          ],
          "internalType": "struct Models.NftCollection[]",
          "name": "collections",
          "type": "tuple[]"
        }
      ],
      "stateMutability": "view",
      "type": "function"
    },
    {
      "inputs": [
        {
          "internalType": "address",
          "name": "_admin",
          "type": "address"
        }
      ],
      "name": "getMakerContractFromAdmin",
      "outputs": [
        {
          "internalType": "address",
          "name": "",
          "type": "address"
        }
      ],
      "stateMutability": "view",
      "type": "function"
    },
    {
      "inputs": [
        {
          "internalType": "address",
          "name": "_maker",
          "type": "address"
        }
      ],
      "name": "getMakerProductLines",
      "outputs": [
        {
          "internalType": "address[]",
          "name": "",
          "type": "address[]"
        }
      ],
      "stateMutability": "view",
      "type": "function"
    },
    {
      "inputs": [
        {
          "internalType": "address",
          "name": "collectionAddress",
          "type": "address"
        }
      ],
      "name": "getPrice",
      "outputs": [
        {
          "internalType": "uint256",
          "name": "",
          "type": "uint256"
        }
      ],
      "stateMutability": "view",
      "type": "function"
    },
    {
      "inputs": [
        {
          "internalType": "address",
          "name": "_makerContract",
          "type": "address"
        }
      ],
      "name": "setMakerContractFromAdmin",
      "outputs": [],
      "stateMutability": "nonpayable",
      "type": "function"
    }
  ],
  "bytecode": "0x608060405234801561001057600080fd5b506119bf806100206000396000f3fe60806040526004361061007b5760003560e01c806341976e091161004e57806341976e091461013a578063949f7f18146101775780639e3c11fe146101a0578063dd62b039146101dd5761007b565b80630328217f146100805780630402548e146100a95780630b3ebd7a146100d25780632201b917146100fd575b600080fd5b34801561008c57600080fd5b506100a760048036038101906100a291906111ac565b61020d565b005b3480156100b557600080fd5b506100d060048036038101906100cb9190611147565b610454565b005b3480156100de57600080fd5b506100e76104d5565b6040516100f49190611502565b60405180910390f35b34801561010957600080fd5b50610124600480360381019061011f9190611147565b61097c565b60405161013191906114e0565b60405180910390f35b34801561014657600080fd5b50610161600480360381019061015c9190611147565b610a49565b60405161016e91906115a0565b60405180910390f35b34801561018357600080fd5b5061019e60048036038101906101999190611170565b610a94565b005b3480156101ac57600080fd5b506101c760048036038101906101c29190611147565b610b38565b6040516101d49190611497565b60405180910390f35b6101f760048036038101906101f29190611147565b610ba1565b60405161020491906115a0565b60405180910390f35b61022f6040518060600160405280602d8152602001611926602d913933610d1d565b806000808360a0015173ffffffffffffffffffffffffffffffffffffffff1673ffffffffffffffffffffffffffffffffffffffff168152602001908152602001600020600082015181600001908051906020019061028e929190610e84565b5060208201518160010190805190602001906102ab929190610e84565b5060408201518160020190805190602001906102c8929190610e84565b5060608201518160030190805190602001906102e5929190610e84565b5060808201518160040160006101000a81548173ffffffffffffffffffffffffffffffffffffffff021916908373ffffffffffffffffffffffffffffffffffffffff16021790555060a08201518160050160006101000a81548173ffffffffffffffffffffffffffffffffffffffff021916908373ffffffffffffffffffffffffffffffffffffffff16021790555060c082015181600601559050508060a0015160016000600254815260200190815260200160002060006101000a81548173ffffffffffffffffffffffffffffffffffffffff021916908373ffffffffffffffffffffffffffffffffffffffff1602179055506001600260008282546103ec91906116b0565b925050819055503373ffffffffffffffffffffffffffffffffffffffff168160a0015173ffffffffffffffffffffffffffffffffffffffff167f1579e2ae5d380a84e9913102b973e528e12ba8e8c3f598098f25969623d04eeb60405160405180910390a350565b80600460003373ffffffffffffffffffffffffffffffffffffffff1673ffffffffffffffffffffffffffffffffffffffff16815260200190815260200160002060006101000a81548173ffffffffffffffffffffffffffffffffffffffff021916908373ffffffffffffffffffffffffffffffffffffffff16021790555050565b60606105166040518060400160405280601981526020017f6275794974656d3a206d73672073656e6465722069732025730000000000000081525033610d1d565b600060025467ffffffffffffffff81111561055a577f4e487b7100000000000000000000000000000000000000000000000000000000600052604160045260246000fd5b60405190808252806020026020018201604052801561059357816020015b610580610f0a565b8152602001906001900390816105785790505b50905060005b600254811015610974576000806001600084815260200190815260200160002060009054906101000a900473ffffffffffffffffffffffffffffffffffffffff1673ffffffffffffffffffffffffffffffffffffffff1673ffffffffffffffffffffffffffffffffffffffff1681526020019081526020016000206040518060e001604052908160008201805461062f90611784565b80601f016020809104026020016040519081016040528092919081815260200182805461065b90611784565b80156106a85780601f1061067d576101008083540402835291602001916106a8565b820191906000526020600020905b81548152906001019060200180831161068b57829003601f168201915b505050505081526020016001820180546106c190611784565b80601f01602080910402602001604051908101604052809291908181526020018280546106ed90611784565b801561073a5780601f1061070f5761010080835404028352916020019161073a565b820191906000526020600020905b81548152906001019060200180831161071d57829003601f168201915b5050505050815260200160028201805461075390611784565b80601f016020809104026020016040519081016040528092919081815260200182805461077f90611784565b80156107cc5780601f106107a1576101008083540402835291602001916107cc565b820191906000526020600020905b8154815290600101906020018083116107af57829003601f168201915b505050505081526020016003820180546107e590611784565b80601f016020809104026020016040519081016040528092919081815260200182805461081190611784565b801561085e5780601f106108335761010080835404028352916020019161085e565b820191906000526020600020905b81548152906001019060200180831161084157829003601f168201915b505050505081526020016004820160009054906101000a900473ffffffffffffffffffffffffffffffffffffffff1673ffffffffffffffffffffffffffffffffffffffff1673ffffffffffffffffffffffffffffffffffffffff1681526020016005820160009054906101000a900473ffffffffffffffffffffffffffffffffffffffff1673ffffffffffffffffffffffffffffffffffffffff1673ffffffffffffffffffffffffffffffffffffffff168152602001600682015481525050828281518110610956577f4e487b7100000000000000000000000000000000000000000000000000000000600052603260045260246000fd5b6020026020010181905250808061096c906117e7565b915050610599565b508091505090565b6060600360008373ffffffffffffffffffffffffffffffffffffffff1673ffffffffffffffffffffffffffffffffffffffff168152602001908152602001600020805480602002602001604051908101604052809291908181526020018280548015610a3d57602002820191906000526020600020905b8160009054906101000a900473ffffffffffffffffffffffffffffffffffffffff1673ffffffffffffffffffffffffffffffffffffffff16815260200190600101908083116109f3575b50505050509050919050565b60008060008373ffffffffffffffffffffffffffffffffffffffff1673ffffffffffffffffffffffffffffffffffffffff168152602001908152602001600020600601549050919050565b600360008373ffffffffffffffffffffffffffffffffffffffff1673ffffffffffffffffffffffffffffffffffffffff168152602001908152602001600020819080600181540180825580915050600190039060005260206000200160009091909190916101000a81548173ffffffffffffffffffffffffffffffffffffffff021916908373ffffffffffffffffffffffffffffffffffffffff1602179055505050565b6000600460008373ffffffffffffffffffffffffffffffffffffffff1673ffffffffffffffffffffffffffffffffffffffff16815260200190815260200160002060009054906101000a900473ffffffffffffffffffffffffffffffffffffffff169050919050565b6000806000808473ffffffffffffffffffffffffffffffffffffffff1673ffffffffffffffffffffffffffffffffffffffff168152602001908152602001600020600601549050610c0c60405180606001604052806037815260200161195360379139333484610db9565b80341015610c1957600080fd5b600083905060008173ffffffffffffffffffffffffffffffffffffffff1663d0def521336040518263ffffffff1660e01b8152600401610c5991906114b2565b602060405180830381600087803b158015610c7357600080fd5b505af1158015610c87573d6000803e3d6000fd5b505050506040513d601f19601f82011682018060405250810190610cab91906111ed565b90503373ffffffffffffffffffffffffffffffffffffffff168573ffffffffffffffffffffffffffffffffffffffff167f6c6b4089a33962e6812e1b966b55b459cfb4b68079af432bdaac195dafc69edd83604051610d0a91906115a0565b60405180910390a3809350505050919050565b610db58282604051602401610d33929190611524565b6040516020818303038152906040527f319af333000000000000000000000000000000000000000000000000000000007bffffffffffffffffffffffffffffffffffffffffffffffffffffffff19166020820180517bffffffffffffffffffffffffffffffffffffffffffffffffffffffff8381831617835250505050610e5b565b5050565b610e5584848484604051602401610dd39493929190611554565b6040516020818303038152906040527fdaa394bd000000000000000000000000000000000000000000000000000000007bffffffffffffffffffffffffffffffffffffffffffffffffffffffff19166020820180517bffffffffffffffffffffffffffffffffffffffffffffffffffffffff8381831617835250505050610e5b565b50505050565b60008151905060006a636f6e736f6c652e6c6f679050602083016000808483855afa5050505050565b828054610e9090611784565b90600052602060002090601f016020900481019282610eb25760008555610ef9565b82601f10610ecb57805160ff1916838001178555610ef9565b82800160010185558215610ef9579182015b82811115610ef8578251825591602001919060010190610edd565b5b509050610f069190610f73565b5090565b6040518060e0016040528060608152602001606081526020016060815260200160608152602001600073ffffffffffffffffffffffffffffffffffffffff168152602001600073ffffffffffffffffffffffffffffffffffffffff168152602001600081525090565b5b80821115610f8c576000816000905550600101610f74565b5090565b6000610fa3610f9e846115e0565b6115bb565b905082815260208101848484011115610fbb57600080fd5b610fc6848285611742565b509392505050565b600081359050610fdd816118f7565b92915050565b600082601f830112610ff457600080fd5b8135611004848260208601610f90565b91505092915050565b600060e0828403121561101f57600080fd5b61102960e06115bb565b9050600082013567ffffffffffffffff81111561104557600080fd5b61105184828501610fe3565b600083015250602082013567ffffffffffffffff81111561107157600080fd5b61107d84828501610fe3565b602083015250604082013567ffffffffffffffff81111561109d57600080fd5b6110a984828501610fe3565b604083015250606082013567ffffffffffffffff8111156110c957600080fd5b6110d584828501610fe3565b60608301525060806110e984828501610fce565b60808301525060a06110fd84828501610fce565b60a08301525060c06111118482850161111d565b60c08301525092915050565b60008135905061112c8161190e565b92915050565b6000815190506111418161190e565b92915050565b60006020828403121561115957600080fd5b600061116784828501610fce565b91505092915050565b6000806040838503121561118357600080fd5b600061119185828601610fce565b92505060206111a285828601610fce565b9150509250929050565b6000602082840312156111be57600080fd5b600082013567ffffffffffffffff8111156111d857600080fd5b6111e48482850161100d565b91505092915050565b6000602082840312156111ff57600080fd5b600061120d84828501611132565b91505092915050565b60006112228383611242565b60208301905092915050565b600061123a83836113c8565b905092915050565b61124b81611706565b82525050565b61125a81611706565b82525050565b600061126b82611631565b611275818561166c565b935061128083611611565b8060005b838110156112b15781516112988882611216565b97506112a383611652565b925050600181019050611284565b5085935050505092915050565b60006112c98261163c565b6112d3818561167d565b9350836020820285016112e585611621565b8060005b858110156113215784840389528151611302858261122e565b945061130d8361165f565b925060208a019950506001810190506112e9565b50829750879550505050505092915050565b600061133e82611647565b611348818561168e565b9350611358818560208601611751565b611361816118bd565b840191505092915050565b600061137782611647565b611381818561169f565b9350611391818560208601611751565b61139a816118bd565b840191505092915050565b60006113b260088361169f565b91506113bd826118ce565b602082019050919050565b600060e08301600083015184820360008601526113e58282611333565b915050602083015184820360208601526113ff8282611333565b915050604083015184820360408601526114198282611333565b915050606083015184820360608601526114338282611333565b91505060808301516114486080860182611242565b5060a083015161145b60a0860182611242565b5060c083015161146e60c0860182611479565b508091505092915050565b61148281611738565b82525050565b61149181611738565b82525050565b60006020820190506114ac6000830184611251565b92915050565b60006040820190506114c76000830184611251565b81810360208301526114d8816113a5565b905092915050565b600060208201905081810360008301526114fa8184611260565b905092915050565b6000602082019050818103600083015261151c81846112be565b905092915050565b6000604082019050818103600083015261153e818561136c565b905061154d6020830184611251565b9392505050565b6000608082019050818103600083015261156e818761136c565b905061157d6020830186611251565b61158a6040830185611488565b6115976060830184611488565b95945050505050565b60006020820190506115b56000830184611488565b92915050565b60006115c56115d6565b90506115d182826117b6565b919050565b6000604051905090565b600067ffffffffffffffff8211156115fb576115fa61188e565b5b611604826118bd565b9050602081019050919050565b6000819050602082019050919050565b6000819050602082019050919050565b600081519050919050565b600081519050919050565b600081519050919050565b6000602082019050919050565b6000602082019050919050565b600082825260208201905092915050565b600082825260208201905092915050565b600082825260208201905092915050565b600082825260208201905092915050565b60006116bb82611738565b91506116c683611738565b9250827fffffffffffffffffffffffffffffffffffffffffffffffffffffffffffffffff038211156116fb576116fa611830565b5b828201905092915050565b600061171182611718565b9050919050565b600073ffffffffffffffffffffffffffffffffffffffff82169050919050565b6000819050919050565b82818337600083830152505050565b60005b8381101561176f578082015181840152602081019050611754565b8381111561177e576000848401525b50505050565b6000600282049050600182168061179c57607f821691505b602082108114156117b0576117af61185f565b5b50919050565b6117bf826118bd565b810181811067ffffffffffffffff821117156117de576117dd61188e565b5b80604052505050565b60006117f282611738565b91507fffffffffffffffffffffffffffffffffffffffffffffffffffffffffffffffff82141561182557611824611830565b5b600182019050919050565b7f4e487b7100000000000000000000000000000000000000000000000000000000600052601160045260246000fd5b7f4e487b7100000000000000000000000000000000000000000000000000000000600052602260045260246000fd5b7f4e487b7100000000000000000000000000000000000000000000000000000000600052604160045260246000fd5b6000601f19601f8301169050919050565b7f746573745f757269000000000000000000000000000000000000000000000000600082015250565b61190081611706565b811461190b57600080fd5b50565b61191781611738565b811461192257600080fd5b5056fe6372656174654e6674436f6c6c656374696f6e436f6e74726163743a206d73672073656e6465722069732025736275794974656d3a206d73672073656e6465722069732025732c206d73672e76616c75652069732025732c207072696365206973202573a26469706673582212206bd1a38f4a4452b374d396cf9f7b92356ee19a59f426f94776bcd8a9dc141c7264736f6c63430008040033",
  "linkReferences": {},
  "deployedLinkReferences": {}
}